:060000000A128A110C280F
:10000800FE00030EF1000A08F2000A128A114C28B9
:100018000A128A110F28F30183010A128A116F2824
:100028008316031788018901FF308316031386009E
:10003800831203138601203083160313850083126D
:1000480003138501831603130F088F3940388F0077
:100058000F14183087008312031387011408F0392E
:100068000438940014129416831603131417941367
:10007800831203138C11831603138C150B178B171C
:100088008113151495148B15161496140B1008006B
:10009800831203138C1D5128522855287308930086
:1000A8008C110B1C58285928682806185C285D28CC
:1000B80061280130F0007008F30786186428652865
:1000C80067280130F3020B1072088A00710E830052
:1000D800FE0E7E0E09000A128A1114200A128A11D5
:0800E80074280A128A110C2889
:08400000FF3FFF3FFF3FFF3FC0
:04400E00D420FF3F7C
:00000001FF
